:020000040800F2
:1000000048490020A113000821120008231200080B
:10001000251200082712000829120008000000001D
:100020000000000000000000000000004501000882
:100030002B1200080000000089010008C10300081D
:10004000BB130008BB130008BB130008BB13000858
:10005000BB130008BB1300082D120008BB130008D7
:10006000BB130008BB130008BB130008BB13000838
:10007000BB130008BB130008BB130008BB13000828
:10008000BB130008BB130008BB130008BB13000818
:10009000BB130008BB130008BB130008BB13000808
:1000A000BB130008BB130008BB130008BB130008F8
:1000B000BB130008BB130008BB130008BB130008E8
:1000C000BB130008BB130008BB130008BB130008D8
:1000D000BB130008BB130008BB130008BB130008C8
:1000E000BB130008BB130008BB130008BB130008B8
:1000F000BB130008BB130008BB130008BB130008A8
:10010000BB130008BB130008BB130008BB13000897
:10011000BB130008BB130008BB130008BB13000887
:10012000BB130008BB130008BB130008BB13000877
:10013000DFF80CD001F0A0FC00480047790200086D
:1001400048490020204B19680868B0E8F00F80F398
:100150000988BFF36F8F4FF0000080F311884EF0D5
:100160000D0E70470000000006480068006880F32C
:10017000088862B661B6BFF34F8FBFF36F8F00DFA1
:1001800000BF00BF08ED00E0EFF30980BFF36F8F01
:100190000D4B1A6820E9F00F106008B54FF0BF0052
:1001A00080F3118800F046FC4FF0000080F31188C6
:1001B000BDE8084019680868B0E8F00F80F30988C6
:1001C000BFF36F8F704700BF1C000020EFF311805A
:1001D0004FF0BF0181F31188704780F31188704799
:1001E000EFF30580704700007FB500240120CDE9C2
:1001F00000044FF4FA75029423462A4625A12848A4
:10020000039400F0B3F90220CDE900040294002326
:100210004FF4967223A12848039400F0A7F9032015
:10022000CDE9000402940023C82224A128480394A5
:1002300000F09CF90420CDE90004029400232A4632
:1002400024A12748039400F091F90520CDE900048A
:10025000029400232A4623A12648039400F086F93D
:100260000620CDE90004029400232A4622A1264854
:10027000039400F07BF97FBD10B500F04FF800F05B
:100280004FF800F049F8FFF7AFFF00F098FC0020AE
:1002900010BD00006B6579207461736B3100000044
:1002A00011030008636F6E666967206461746120E2
:1002B0007461736B320000000D03000866616374A3
:1002C0006F72792074657374207461736B330000EE
:1002D0000F03000870616972207461736B34000051
:1002E000130300087363616E6E6572207461736B33
:1002F00035000000150300087A696762656520749F
:1003000061736B360000000017030008FEE7FEE78C
:10031000FEE7FEE7FEE7FEE700F002BF00F001BFE8
:1003200000F001BF00F052BF70470000FFF74EFF22
:10033000FEE710B5031F4FF080741C601B1F19608F
:10034000191F274B0B60143940380A6010BD4FF05D
:10035000E02024494161072101617047224810B51E
:10036000016841F47F010160016841F07F41016053
:10037000FFF7EDFF1D4900200860FFF7F5FE0020A4
:1003800010BD704718494FF080501C390860BFF30A
:100390004F8FBFF36F8F704710B5FFF717FF1348EC
:1003A0000168491CBFF34F8FBFF36F8F016010BD11
:1003B0000E490868401E086001D1FFF70EBF704764
:1003C00010B5FFF703FF00F0BFF920B106494FF069
:1003D00080501C390860BDE810400020FFF7FDBECA
:1003E0002D0300083F19010020ED00E0000000206F
:1003F0002DE9F0410446002500F060FA374E06F181
:100400000801706801F1080368B93548002720F039
:100410000700C1E9000744F2F832C3E90072C0E9FD
:100420000032012070603CB10834600704D004F051
:100430000700C0F108000444601E44F2F732904205
:1004400027D2264A0968083201E00A460146486870
:10045000A04202D208680028F7D1994219D0156845
:100460000868106048680835001B10280DD90B1962
:1004700058601A484C6008305C6800E0104602681A
:100480005768A742FAD31A60036048683168081AAF
:10049000306000F0AFF92846BDE8F08110B50028C3
:1004A00017D0A0F1080400F009FA0C49606808317F
:1004B00000E011460A6853688342FAD32260074875
:1004C0000C606168026811440160BDE8104000F0F2
:1004D00091B910BD014800687047704704000020C2
:1004E0008400002000F108014FF0FF32C0E9011242
:1004F000C160016100210160704700210161704706
:1005000042684A6093688B609368596091600861A3
:100510000168491C0160704730B50C68621C02D04C
:1005200000F1080202E0026904E01A4653681D68FF
:10053000A542FAD953684B6099608A60516008619E
:100540000168491C016030BDD0E9013201699A603F
:10055000D0E901235A604A68824201D182684A6028
:10056000002202610868401E086070472DE9F05FB4
:100570008346DDE90B800A9E9A461546894610B9E6
:10058000A800FFF735FF07000AD04C20FFF730FF27
:10059000040001D0276304E03846FFF77FFF00E046
:1005A0000024002C7ED06FF0030000EB8500216B4F
:1005B0003546084420F007074946002022180B5C06
:1005C00082F834300A5C12B1401C1028F6D34FF088
:1005D000000984F84390052D00D30425201DE56211
:1005E000FFF78BFF04F11800FFF787FF2461C5F1C7
:1005F00005016462A161C4F8449084F848905246B1
:1006000059463846FFF795FE2060B8F1000F01D03B
:10061000C8F80040FFF7C0FEFE4FB868401CB86045
:100620003868DFF8F48310B1786940B32CE03C609F
:10063000B868012828D1002505EB850108EB810069
:10064000FFF750FF6D1C052DF6D3F3486430FFF71C
:1006500049FFF1487830FFF745FFEF488C30FFF74E
:1006600041FFED48A030FFF73DFFEB48B430FFF706
:1006700039FFE948643038631430786304E038683F
:10068000C06AB04200D83C60786A0121401C7862A0
:10069000E06A3A6981401143396100EB800108EB5F
:1006A000810000E010E0211DFFF72AFF0124FFF781
:1006B0007FFE786928B13868C06AB04201D2FFF77E
:1006C00061FE2046BDE8F09F4FF0FF34F9E770B5BA
:1006D0000446FFF761FECF4D04B92C68201DFFF7DB
:1006E00033FF58B9E06ACC4A00EB800152F8211080
:1006F00021B901218140286988432861A06A18B185
:1007000004F11800FFF720FFC348211DA030FFF7B8
:10071000F7FE6868401C6860686A401C6862FFF702
:1007200047FE686900280ED02868844203D1BDE8DE
:100730007040FFF727BEFFF72FFE00F0A9FCBDE8D1
:100740007040FFF735BE70BD2DE9F041B14F002577
:10075000F86A40B1B869401CB861F86900B1012578
:100760002846BDE8F081F868401CF860FE6846B98C
:10077000386B796B39637863386A401C386200F0F3
:1007800087FCB86ADFF89082864209D3386B00682C
:1007900080B1386BC068C468606886420DD2B862A8
:1007A0003868C06A00EB800158F821000128D4D9CC
:1007B0000125D2E74FF0FF30F1E7201DFFF7C4FE1F
:1007C000A06A18B104F11800FFF7BEFEE06A01212B
:1007D0003A6981401143396100EB800108EB8100E7
:1007E000211DFFF78DFEE06A3968C96A8842CDD3C2
:1007F0000125CBE72DE9F0470027FFF7CDFD854D1B
:10080000E86A401EE862E86AD8BBA86882498C3171
:100810000126B0B3DFF800928846D8F80010E9B19D
:10082000D8F80C00C46804F11800FFF78DFE201DF5
:10083000FFF78AFEE06A2A6906FA00F1114329618E
:1008400000EB800109EB8100211DFFF759FEE06AF2
:100850002968C96A8842E0D3EE61DEE7A86938B941
:1008600009E0FFF771FF00B1EE61A869401EA861C1
:10087000A8690028F5D1E869012802D10127FFF70E
:1008800081FDFFF795FD3846BDE8F08770B5614DF5
:10089000044628684460E8682968844205D2686B89
:1008A000BDE87040091DFFF737BE286B091DFFF733
:1008B00033FEA86A844200D2AC6270BD5548C16A5A
:1008C000491CC162704770B50C4606460022FFF70E
:1008D000F5FF504DE86833681C44834202D9A342B7
:1008E00002D804E0A34201D8844200D90122346036
:1008F0007AB12868001DFFF727FE38B9286890F8FC
:100900002C10012088402969814329612046FFF786
:10091000BDFFFFF76FFF002803D1BDE87040FFF770
:1009200031BD70BD70B5020018D0FFF7C7FF394C5C
:10093000E06885182068001DFFF706FE38B92068BA
:1009400090F82C10012088402169814321612846BC
:10095000FFF79CFFFFF74EFF002803D1BDE8704072
:10096000FFF710BD70BD10B50446FFF715FD0CB9BB
:1009700028480468E46AFFF71BFD204610BD10B547
:100980000446FFF723FC0CB922490C68E46AFFF720
:1009900024FC204610BD2DE9F04100260D460446FA
:1009A000052900D30425FFF7F7FC1A4F04B93C686A
:1009B000E06AA8423AD03968854206D98C4207D00D
:1009C0003968C96AA94202D902E08C4200D10126E5
:1009D0008046E562A069002802DBC5F10500A06140
:1009E0000D4D08EB8800616905EB800081421AD14A
:1009F000201DFFF7A9FD012120B93A6901FA08F08D
:100A000082433A61E06A3A6981401143396100EBFF
:100A1000800003E01C0000207C44002005EB8000E7
:100A2000211DFFF76DFD0EB1FFF7ACFCBDE8F041F5
:100A3000FFF7BEBCF84AD06A10B10120D061704700
:100A40000020D0611069F549B0FA80F0C0F11F00B4
:100A500000EB800001EB800000F108034168496869
:100A60004160994201D149684160C868106070478F
:100A700070B50446FFF790FCE74D04B92C68201DC3
:100A8000FFF762FD58B9E06AE44A00EB800152F8D2
:100A9000211021B901218140286988432861A06A79
:100AA00018B104F11800FFF74FFDDC48211DB430E8
:100AB000FFF726FDFFF77CFC28688442686910D1A7
:100AC00018B1BDE87040FFF75DBCD448A968B430E8
:100AD0000068884202D10020286070BDBDE87040E7
:100AE000A8E70028F9D0FFF757FC00F0D1FABDE8DD
:100AF0007040FFF75DBC70B5040026D0C64D286875
:100B0000844222D0FFF748FC204600F0CEFA0128AC
:100B100017D1201DFFF718FDE06A01212A698140E5
:100B200011432961BD4900EB800001EB8000211DCC
:100B3000FFF7E6FCE06A2968C96A884201D3FFF73B
:100B400021FCBDE87040FFF733BC70BD2DE9F041DA
:100B500004460025FFF73AFB0746204600F0A5FAB9
:100B600001281ED1AC4EF06A20B1AC4804F1180146
:100B70008C3014E0E06A3168C96A884200D30125EC
:100B8000201DFFF7E1FCE06A012132698140114339
:100B90003161A24900EB800001EB8000211DFFF7CD
:100BA000AFFC3846FFF719FB2846DAE59B4C00F00E
:100BB0008AFA20680128FAD9FFF7E4FBF7E71FB5A6
:100BC00000240094019402942346802294A1964824
:100BD0000394FFF7CBFC01280BD1FFF7F7FA8E48FF
:100BE000611E816201214161C460BDE81F40FFF7C1
:100BF000B5BB1FBD10B5FFF7E9FA87490020486172
:100C0000BDE81040FFF7BDBB8348C068704782480D
:100C1000C068704780488068704770B57E4C0D464C
:100C200021681831FFF778FC2068001DFFF78CFC65
:100C300038B9206890F82C10012088402169814340
:100C40002161681C04D0E0682844BDE870401DE6BE
:100C500021687248BDE87040B430091DFFF750BCF0
:100C600070B56D4C154641F00041226891612168D4
:100C70001831FFF745FC2068001DFFF765FC38B907
:100C8000206890F82C10012088402169814321615F
:100C9000681C04D0E0682844BDE87040F6E521688F
:100CA0005E48BDE87040B430091DFFF729BC2DE94E
:100CB000F041C068C46804F118000746FFF744FC1F
:100CC000554DE86A012660B1544839468C30FFF72B
:100CD00017FCE06A2968C96A884212D90120EE61CE
:100CE0003FE5201DFFF730FCE06A2A6906FA00F1B3
:100CF00011432961494900EB800001EB8000211D6F
:100D0000E5E700202DE570B541F000410160C468C1
:100D1000FFF71AFC201DFFF717FC3F4DE06A012684
:100D20002A6906FA00F1114329613C4900EB800071
:100D300001EB8000211DFFF7E3FBE06A2968C96A27
:100D4000884202D90120EE6170BD002070BD324999
:100D50000A6A0260C9684160704770B50D46044672
:100D6000FFF71AFB2C49CA682868431C0FD0236878
:100D7000096A8B4202D0616891420AD96168511AAE
:100D8000814206D2401A28602046FFF7E0FF002487
:100D900000E00124FFF70CFB204670BD1E49012036
:100DA000C86170471C4908680A688069D26A096886
:100DB000C2F105028A6170472DE9F0410C460646F2
:100DC000FFF7EAFA144D2868406CC0B9286801277B
:100DD00080F848709CB12868001DFFF7B5FB30B95A
:100DE000286890F82C0087402869B8432861601C67
:100DF0001CD0E8682044FFF749FDFFF7C3FAFFF76E
:100E0000D7FAFFF7C9FA2868446C0022C4B19EB132
:100E10002868426414E000001C0000207C4400208C
:100E200049444C4500000000AD0B00082968BA4851
:100E3000091DFFF765FBE0E72968486C401E486420
:100E4000286880F84820FFF7B3FA204689E42DE9A6
:100E5000F0411C46164688460746FFF79DFAAF4DFF
:100E6000286890F8480002281CD02868416CB943D3
:100E700041642868012780F848709CB12868001DEB
:100E8000FFF762FB30B9286890F82C00874028698A
:100E9000B8432861601C20D0E8682044FFF7F6FCC6
:100EA000FFF770FAFFF784FAFFF776FA16B12868B1
:100EB000406C3060286890F84800012813D02868FA
:100EC000416C21EA0801416401242968002081F86D
:100ED0004800FFF76DFA204643E429688E48091D53
:100EE000FFF70EFBDCE70024EFE72DE9F0411F469A
:100EF00090460D4604460126FFF74EFA0FB1606C8E
:100F0000386094F84800022184F84810B8F1050FC1
:100F10000ED2DFE808F00D03060C0A00616C2943CD
:100F200001E0616C491C616402E0022803D0656441
:100F3000012802D01BE0002619E0201DFFF704FB6A
:100F4000764DE06A01212A69814011432961724985
:100F500000EB8000B43901EB8000211DFFF7D0FACF
:100F6000E06A2968C96A884201D9FFF70BFAFFF7DE
:100F70001FFA304619E62DE9F0471F4691460D4607
:100F800004460126DDF82080FFF720F982460FB1E4
:100F9000606C386094F84800022184F84810B9F178
:100FA000050F0ED2DFE809F00D03060C0A00616C94
:100FB000294301E0616C491C616402E0022803D00E
:100FC0006564012802D015E0002613E0534DE86A5D
:100FD0000127A0B1504804F118012838FFF790FA12
:100FE000E06A2968C96A884204D9B8F1000F01D0C3
:100FF000C8F800705046FFF7F0F8304644E4201D72
:10100000FFF7A2FAE06A2A6907FA00F111432961A1
:10101000414900EB8000B43901EB8000211DDDE780
:101020002DE9F0410E460446FFF7D0F894F8481039
:101030008046022084F84800606C401C60640129EE
:1010400010D1364DE86A012788B1334804F1180100
:101050002838FFF755FAE06A2968C96A884201D939
:1010600006B137604046BDE8F041FFF7B6B8201D35
:10107000FFF76AFAE06A2A6907FA00F11143296169
:10108000254900EB8000B43901EB8000211DE0E729
:101090002248016B096829B1016BC968C9684968B0
:1010A000816270474FF0FF31FAE71B4B4269002124
:1010B0009A4206D1806AA3F12802904201D000B979
:1010C00001210846704770B5134E144D143E1FE0C1
:1010D000FFF7F4FB306820B10024FFF78BFBBCB9AD
:1010E00001E00124F9E7FFF757F9F068C468201D13
:1010F000FFF72AFAA868401EA8606868401E68606A
:10110000FFF756F9206BFFF7C9F92046FFF7C6F93C
:1011100068680028DCD170BD304500201C0000202C
:10112000704700F0E1B8F8B54FF4E06000F04AF91C
:1011300025208DF8000000248DF8014005208DF851
:10114000020001258DF80350684600F040F9262082
:101150008DF800008DF8014006268DF802608DF8AC
:101160000350684600F033F91C208DF800008DF81C
:10117000014007208DF802008DF80350684600F00A
:1011800026F927208DF800008DF8014008208DF801
:1011900002008DF80350684600F019F98DF80060E0
:1011A0008DF801400F208DF802008DF8035068463D
:1011B00000F00DF9F8BD4FF4C86303E01946491E6D
:1011C00089B2FCD2401E80B2F8D270473EB50121F0
:1011D000052000F002FC48208DF80B000124ADF83A
:1011E000084003208DF80A0002A90C4800F00DFA0F
:1011F0000021084600F0BDFA00208DF804000C2004
:101200008DF8050000948DF80640684600F040F91E
:101210003EBD0121014800F04EBA00000008014027
:101220007047FEE7FEE7FEE7FEE7704710B50120D6
:1012300000F07EF9002806D0FFF776F8BDE81040F0
:10124000012000F083B910BD0CB500224C4800927B
:101250000192016841F4803101604FF4A06301689C
:1012600001F4003101910099491C0091019911B9D3
:1012700000999942F3D10168890333D50121019185
:1012800040490A6842F010020A600A6822F003022C
:101290000A600A6842F002020A60416841604168DF
:1012A0004160416841F480614160416821F47C11F2
:1012B0004160416841F4E8114160016841F080718A
:1012C000016001688901FCD5416821F0030141609A
:1012D000416841F0020141604168C1F38101022986
:1012E000FAD10CBD01920CBD254810B5016841F042
:1012F000010101604168244A114041600168234AAC
:1013000011400160016821F480210160416821F4ED
:10131000FE0141604FF41F018160FFF795FF1C49FA
:101320004FF00060086010BD154A10B55068194BA9
:1013300010F00C01184803D0042901D0082901D06D
:10134000036012E05168536801F470114FF0020419
:1013500013F4803F04EB914102D053689B0301D505
:101360000E4B00E00B4B5943016051680A4AC1F330
:101370000311121D515C0268CA40026010BD0000DA
:1013800000100240002002400000FFF8FFFFF6FEC0
:1013900008ED00E000127A005400002000093D0032
:1013A0000648804706480047FEE7FEE7FEE7FEE7FF
:1013B000FEE7FEE7FEE7FEE7FEE7FEE7E9120008CC
:1013C000310100082849084328490860704730B5B2
:1013D0000F23C27801780125F2B1244A126801F185
:1013E000E02102F4E062C2F5E062120AC2F10404F4
:1013F000D3404278A24084781C401443220181F8F3
:101400000024007800F01F018D404009800000F1A9
:10141000E020C0F8005130BD01F01F0085404809B0
:10142000800000F1E020C0F8805130BD104A11402A
:1014300001430E48001F016070470C4A121D00292D
:10144000116801D0014300E08143116070474FF003
:10145000E0210428086903D020F0040008617047E7
:1014600040F00400FAE700000000FA050CED00E08F
:1014700080FFFF1F374900200860091D0860091D13
:101480000860091D0860334933481431086070470B
:1014900030B5304A8379016853B313688B431360C6
:1014A000111D0B680468A3430B60017911440B689C
:1014B000046823430B60274B083319680468A14371
:1014C00019601C1D21680568A94321604179102914
:1014D00005D011440A68006802430A6030BD1968EB
:1014E000026811431960216800680143216030BD22
:1014F0000079104402688A43026030BD0021016017
:1015000001710C22427181717047124910310A68D1
:1015100002430A60704701460E4A002014321268E6
:101520000A4200D0012070470A4914310860704710
:10153000084A014600201268064B0A4014331B6813
:101540000B4202D0002A00D001207047014914311B
:101550000860704700040140FFFF0F008F4910B57D
:10156000884206D10121042000F049FA002104201C
:101570003BE08B49884206D10121082000F03FFA68
:101580000021082031E08749884206D1012110203E
:1015900000F035FA0021102027E08349884206D167
:1015A0000121202000F02BFA002120201DE07F499E
:1015B000884206D10121402000F021FA002140207C
:1015C00013E07B49884206D10121802000F017FA00
:1015D0000021802009E0774988420AD18415012141
:1015E000204600F00CFA00212046BDE8104000F033
:1015F00006BA10BD10B50121084600F000FA00211E
:10160000BDE81040012000F0FAB9F0B5CC78002216
:1016100004F00F03E40601D58C7823430C784FF0D7
:101620000F0C14F0FF0F4FF0010E1BD005680E8851
:101630000EFA02F42640A64210D196000CFA06F7E4
:1016400025EA070703FA06F5CE783D43282E02D097
:10165000482E02D002E0446100E00461521C082AD6
:10166000E5D305600A88FF2A1CD94468002202F1EC
:1016700008060EFA06F50E882E40AE420ED19600F0
:101680000CFA06F7BC4303FA06F7CE783C43282E43
:1016900000D14561CE78482E00D10561521C082A40
:1016A000E5D34460F0BD4FF6FF71018002218170E7
:1016B0000421C17070470246002092680A4200D09F
:1016C00001207047806880B2704702460020D268CF
:1016D0000A4200D001207047C06880B270470161A3
:1016E0007047416170470AB10161704741617047BD
:1016F000C160704741F48032826181618261816999
:10170000806970472C4B10B51A684FF680742240E0
:1017100042EA00100843186010BD2849C8617047AC
:10172000F0B5254C002801DAE36900E06368450D57
:101730002E0185B2C0F30157B540C0F30342032F19
:1017400005D0C6020AD503269640B34307E023F02E
:101750007062636823F07063636002E0AB4343F040
:10176000706201B12A43002801DAE261F0BD6260D3
:10177000F0BD10B58A0721F003040F49120F214470
:101780000F238C6893409C438C608B68904003438C
:101790008B6010BD0949C1F8DC00704700080140AA
:1017A000000C0140001001400014014000180140ED
:1017B000001C0140002001400000014000002042C8
:1017C000A548016841F0010101604168A34A114048
:1017D00041600168A24A11400160016821F4802142
:1017E0000160416821F4FE0141604FF41F018160F6
:1017F000704799490A6822F480320A600A6822F424
:1018000080220A60B0F5803F07D0B0F5802F03D169
:10181000086840F4A02008607047086840F48030F1
:10182000F9E70346002059098B4A01290AD0022909
:101830000AD0516A03F01F02012393400B4200D0EB
:10184000012070471168F5E7116AF3E718B5002029
:101850004FF4A06400903120FFF7E3FF0099491C8A
:101860000091A14201D00028F5D03120FFF7D9FF27
:10187000002800D0012018BD774A116821F0F80136
:1018800041EAC00010607047764908607047724BAB
:101890005A68084322F47C1210435860704771491B
:1018A000086670476C4A516821F00301014351609A
:1018B00070476948406800F00C007047664A5168FC
:1018C00021F0F001014351607047634A516821F4EF
:1018D000E0610143516070475F4A516821F46051F3
:1018E00041EAC000506070475B4A0029517A01D03C
:1018F000014300E08143517270475A49C1F8D80052
:101900007047554A516821F4404101435160704786
:101910005149002281F8202081F82020012802D09E
:10192000042802D1052081F8200070474E49086044
:10193000704749490A6A02430A6270474A49443972
:101940000860704730B5444A5168484B11F00C01AB
:1019500003D0042901D0082901D0036012E05168A6
:10196000536801F470114FF0020413F4803F04EB4C
:10197000914102D053689B0301D53D4B00E03B4BA6
:101980005943016051680F2303EA1111394B5C5C24
:101990000168E14041605468072505EA14241C5D94
:1019A00021FA04F48460546805EAD4241B5DD9400C
:1019B000C1605268032303EA92322E4B1B1F9A5CCC
:1019C000B1FBF2F1016130BD234A0029516901D018
:1019D000014300E08143516170471F4A002991692A
:1019E00001D0014300E08143916170471A4A002908
:1019F000D16901D0014300E08143D1617047164AAB
:101A00000029D16801D0014300E08143D1607047D3
:101A1000114A0029116901D0014300E0814311619D
:101A2000704711494039086070470E49C8647047D3
:101A30000949C87170470848416A41F080714162A4
:101A40007047054A0146002092680A4200D00120F2
:101A50007047014988727047001002400000FFF88B
:101A6000FFFFF6FE000042428004424200127A006C
:101A700000093D006C000020064C074D06E0E068C0
:101A800040F0010394E8070098471034AC42F6D3C5
:101A9000FEF752FBBC1A0008DC1A000802E008C876
:101AA000121F08C1002AFAD170477047002001E0D8
:101AB00001C1121F002AFBD170470000DC1A000888
:101AC000000000207C0000009C1A0008581B000841
:101AD0007C000020CC480000AC1A0008AAAAAAAAE0
:101AE000F8430000000000000000000000000000BB
:101AF00000000000000000000000000000000000E6
:101B000000000000000000000000000000000000D5
:101B100000000000000000000000000000000000C5
:101B200000000000000000000000000000000000B5
:101B300000A24A04000000000000000001020304AB
:101B40000607080902040608000000000102030459
:081B5000010203040607080965
:0400000508000131BD
:00000001FF
